:100000000C942A000C9447000C9447000C94470071
:100010000C9447000C9447000C9447000C94470044
:100020000C9447000C9447000C9447000C94470034
:100030000C9447000C9447000C9447000C94470024
:100040000C9447000C9447000C9447000C94470014
:100050000C94470011241FBECFE5D8E0DEBFCDBF12
:1000600010E0A0E6B0E0ECEDF6E002C005900D92E5
:10007000A639B107D9F710E0A6E9B0E001C01D929A
:10008000AD3AB107E1F70E9449000C946C030C945F
:1000900000000E94C7001ABA17BA0EE310E00F2E34
:1000A000F0E6EF2EF0E0FF2EF02D0F2EF5E6CF2E2E
:1000B000F0E0DF2EF02D1093AC000093AB006091C8
:1000C00096007091970080E090E00E94670220E027
:1000D00030E044EB53E40E94D30120E030E048E7F5
:1000E00052E40E94F5020E943B02DC01CB01909396
:1000F000AA008093A90089B396B3D92F90E0C92FA5
:1001000090E08C2B9D2B909397008093960081E03C
:1001100061E0A7010E9421018091A9009091AA00AD
:100120000E944101AC0182E062E00E942101C6010F
:100130000E941201C0CFAB9A81E28A95F1F70000CC
:10014000AB9881E28A95F1F7000008951F93CF9351
:10015000DF93182FAA9885B3912F907F8F70892BEA
:1001600085BBCBE9D0E0FE01099585B31295107FE0
:100170008F70182B15BBFE01099589EF90E0019750
:10018000F1F700C00000DF91CF911F910895A29A6E
:10019000A39AA19AA99884B3806F84BB83E30E9439
:1001A000A60082E30E94A60088E20E94A6008CE0DE
:1001B0000E94A60081E00E94A60080E80E94A6009E
:1001C0008FE493EC0197F1F700C0000008951F93AE
:1001D000CF93DF93182FAA9A85B3912F907F8F70BA
:1001E000892B85BBCBE9D0E0FE01099585B312953B
:1001F000107F8F70182B15BBFE01099583EC99E0D9
:100200000197F1F700C00000DF91CF911F91089591
:1002100081E00E94A60089EF90E00197F1F700C00D
:1002200000000895CF93DF93EC018881882331F09B
:1002300021960E94E70089918823D9F7DF91CF9119
:100240000895CF93DF93EA010E942C01CE010E9412
:100250001201DF91CF910895613021F480580E94FE
:10026000A6000895623021F480540E94A6000895EB
:100270000E94080181E060E048E650E00E94210110
:1002800008951092A800009771F0E8EAF0E02AE0E3
:1002900030E0B9010E945803805D8293862F972F2A
:1002A0000097B9F702C0EAE7F0E08E2F9F2F08957C
:1002B000CF93DF93E82FF92FEF0109900020E9F7A2
:1002C0002197CE1BDF0B40E050E021E030E080E0E2
:1002D000AAE012C0B19190E0829FB001839F700D9F
:1002E000929F700D11242B2F30E020533040260FA9
:1002F000371F4F5F5F4F8A2F4C175D0759F7822FCB
:10030000932FDF91CF9108950F931F93CF93DF9396
:10031000D82FC92F862F880F880F880F805C0E94E6
:10032000A6000D2F1C2FC0E0D0E0F80181918F01B5
:100330000E94E7002196C730D105B9F7DF91CF9130
:100340001F910F910895EF92FF920F931F93CF93F8
:10035000C0E00CE710E00F2EF2E8EF2EF0E0FF2EE9
:10036000F02D8C2F61E0A8010E9421018FE79AE116
:10037000A6E081509040A040E1F700C0000080E07E
:1003800061E0A7010E942101A3ECB9E01197F1F708
:1003900000C00000CF5FCA3021F7CF911F910F91AD
:1003A000FF90EF9008950CD0E6C0DED040F0D5D09D
:1003B00030F021F45F3F19F0C7C0511110C1CAC01D
:1003C000EBD098F39923C9F35523B1F3951B550B43
:1003D000BB27AA2762177307840738F09F5F5F4F18
:1003E000220F331F441FAA1FA9F333D00E2E3AF059
:1003F000E0E830D091505040E695001CCAF729D073
:10040000FE2F27D0660F771F881FBB1F26173707C1
:100410004807AB07B0E809F0BB0B802DBF01FF27F1
:1004200093585F4F2AF09E3F510568F08DC0D7C0AA
:100430005F3FECF3983EDCF3869577956795B7952B
:10044000F7959F5FC9F7880F911D9695879597F946
:100450000895E1E0660F771F881FBB1F62177307BF
:100460008407BA0720F0621B730B840BBA0BEE1FD4
:1004700088F7E095089598D088F09F5790F0B92FAD
:100480009927B751A0F0D1F0660F771F881F991FE9
:100490001AF0BA95C9F712C0B13081F09FD0B1E01F
:1004A00008959CC0672F782F8827B85F39F0B93F2F
:1004B000CCF3869577956795B395D9F73EF49095EB
:1004C0008095709561957F4F8F4F9F4F0895E89469
:1004D00009C097FB3EF490958095709561957F4F8C
:1004E0008F4F9F4F9923A9F0F92F96E9BB2793953A
:1004F000F695879577956795B795F111F8CFFAF44A
:10050000BB0F11F460FF1BC06F5F7F4F8F4F9F4F7A
:1005100016C0882311F096E911C0772321F09EE8D8
:10052000872F762F05C0662371F096E8862F70E03E
:1005300060E02AF09A95660F771F881FDAF7880F18
:100540009695879597F9089597F99F6780E870E0E9
:1005500060E008959FEF80EC089500240A94161639
:10056000170618060906089500240A9412161306A1
:10057000140605060895092E0394000C11F488232F
:1005800052F0BB0F40F4BF2B11F460FF04C06F5F4B
:100590007F4F8F4F9F4F089557FD9058440F551F21
:1005A00059F05F3F71F04795880F97FB991F61F0F5
:1005B0009F3F79F087950895121613061406551F6C
:1005C000F2CF4695F1DF08C0161617061806991FD8
:1005D000F1CF86957105610508940895E894BB27CD
:1005E00066277727CB0197F908950BD0C4CFB5DFE5
:1005F00028F0BADF18F0952309F0A6CFABCF11246D
:10060000EECFCADFA0F3959FD1F3950F50E0551FB1
:10061000629FF001729FBB27F00DB11D639FAA2757
:10062000F00DB11DAA1F649F6627B00DA11D661FA6
:10063000829F2227B00DA11D621F739FB00DA11DC7
:10064000621F839FA00D611D221F749F3327A00D81
:10065000611D231F849F600D211D822F762F6A2F1D
:1006600011249F5750408AF0E1F088234AF0EE0FA2
:10067000FF1FBB1F661F771F881F91505040A9F7AF
:100680009E3F510570F060CFAACF5F3FECF3983EDC
:10069000DCF3869577956795B795F795E7959F5F16
:1006A000C1F7FE2B880F911D9695879597F90895B0
:1006B000AA1BBB1B51E107C0AA1FBB1FA617B70788
:1006C00010F0A61BB70B881F991F5A95A9F78095A4
:0C06D0009095BC01CD010895F894FFCF77
:1006DC006469733D00636D00726F77203120616E29
:1006EC00642032206F6E6C792000300068656C6C71
:1006FC006F002020202020202020202020202020BF
:06070C0020202020000067
:00000001FF
