:100000000C942A000C94BC020C9447000C944700FA
:100010000C9447000C9447000C9447000C94470044
:100020000C9447000C9447000C9447000C94470034
:100030000C9447000C9447000C9447000C94470024
:100040000C9447000C9447000C9447000C94470014
:100050000C94470011241FBECFE5D8E0DEBFCDBF12
:1000600011E0A0E6B0E0ECE7F7E002C005900D92E9
:10007000AE34B107D9F711E0AEE4B1E001C01D9292
:10008000A73AB107E1F70E945F000C94BC030C94FF
:1000900000008FEF8BBB8FE996E8A1E08150904084
:1000A000A040E1F700C000001BBA8FE996E8A1E08C
:1000B00081509040A040E1F700C0000008950E94E8
:1000C00004030E94760383E060E040E650E00E9473
:1000D000430383E061E04AE650E00E9443038FEF70
:1000E00094E3ACE081509040A040E1F700C00000F4
:1000F0000E943F0383E060E044E750E00E94430336
:1001000084E061E04EE750E00E9443038FEF94E308
:10011000ACE081509040A040E1F700C000000E9498
:100120003F0380E060E047E850E00E94430307E8B7
:1001300010E00F2EF8E9EF2EF0E0FF2EF02D0F2E3D
:10014000FAE9AF2EF0E0BF2EF02D0F2EFEE98F2E34
:10015000F0E09F2EF02D0F2EF2EA6F2EF0E07F2EB2
:10016000F02D0F2EF6EA2F2EF0E03F2EF02D442436
:10017000552443940F2EF2EBCF2EF0E0DF2EF02D1E
:1001800080E060E0A8010E9443030E948403AFE185
:10019000BEE41197F1F700C0000090E00E944E030A
:1001A000EC0181E061E0AE010E944303EFE1FEE477
:1001B0003197F1F700C00000CE01B7010E94B303F0
:1001C000282F392F2115310559F48091560190912E
:1001D0005701009729F450925701409256015FC091
:1001E000CE01B5010E94B303282F392F2115310507
:1001F00071F480915601909157018130910539F445
:1002000082E090E0909357018093560148C0CE0160
:10021000B4010E94B303282F392F2115310571F441
:1002200080915601909157018230910539F4A3E0F5
:10023000B0E0B0935701A093560131C0CE01B30195
:100240000E94B303282F392F2115310571F48091B5
:100250005601909157018330910539F4E4E0F0E0C4
:10026000F0935701E093560107C080915601909199
:1002700057018430910599F481E061E0A1010E9469
:1002800043038FE19EE40197F1F700C00000109254
:10029000570110925601509255014092540181E04D
:1002A00061E0A6010E9443036BCF8A98929A85B7BA
:1002B000826085BF8BB780648BBF8FB780688FBF2C
:1002C00008958091540190915501009709F0A0C0C4
:1002D0008091520190915301009709F04CC0809198
:1002E000500190915101009711F580E060E049ECD8
:1002F00050E00E94430381E061E048ED50E00E943D
:1003000043038FEF99E6A8E181509040A040E1F7C8
:1003100000C000008091540190915501009709F0B0
:1003200077C08091520190915301009721F58091FF
:100330005001909151018130910509F069C080E030
:1003400060E045EE50E00E94430381E061E044EF4D
:1003500050E00E9443038FEF99E6A8E1815090405E
:10036000A040E1F700C00000809154019091550138
:10037000009709F04DC08091520190915301813056
:10038000910509F045C0809150019091510100976D
:1003900011F580E060E045EE50E00E94430381E00B
:1003A00061E044EF50E00E9443038FEF99E6A8E13B
:1003B00081509040A040E1F700C0000080915401BE
:1003C00090915501009721F5809152019091530130
:1003D00081309105E9F48091500190915101813073
:1003E000910509F0C8C080E060E041E051E00E9462
:1003F000430381E061E040E151E00E9443038FEF5D
:1004000099E6A8E181509040A040E1F700C00000CB
:1004100080915401909155018130910509F0ABC054
:100420008091520190915301009709F04EC0809144
:10043000500190915101009719F580E060E045EE80
:1004400050E00E94430381E061E044EF50E00E94ED
:1004500043038FEF99E6A8E181509040A040E1F777
:1004600000C00000809154019091550181309105A8
:1004700009F081C08091520190915301009729F5B4
:1004800080915001909151018130910509F073C024
:1004900080E060E041E051E00E94430381E061E0E0
:1004A00040E151E00E9443038FEF99E6A8E18150BB
:1004B0009040A040E1F700C000008091540190916D
:1004C00055018130910509F056C0809152019091FB
:1004D00053018130910509F04EC0809150019091F7
:1004E0005101009761F580E060E041E051E00E9439
:1004F000430381E061E040E151E00E9443038FEF5C
:1005000099E6A8E181509040A040E1F700C00000CA
:100510008FEF99E6A8E181509040A040E1F700C03C
:10052000000080915401909155018130910519F599
:10053000809152019091530181309105E1F48091B5
:1005400050019091510181309105A9F480E060E063
:100550004DE151E00E94430381E061E04CE251E053
:100560000E9443038FEF99E6A8E181509040A0409C
:10057000E1F700C0000008951F920F920FB60F928E
:1005800011242F933F934F935F936F937F938F9398
:100590009F93AF93BF93EF93FF930E9461011092DB
:1005A0004E0110924F011092510110925001109281
:1005B0005301109252011092550110925401FF9173
:1005C000EF91BF91AF919F918F917F916F915F91CB
:1005D0004F913F912F910F900FBE0F901F90189544
:1005E0008BBBC198C398C09882E08A95F1F700C090
:1005F000C09A92E09A95F1F700C08FE19EE40197CE
:10060000F1F700C0000008958FEF8ABB1BBAB89ABB
:10061000B99ABB9AC09A88E30E94F0028CE00E94CB
:10062000F00208958BBBC198C39AC09882E08A9566
:10063000F1F700C0C09A92E09A95F1F700C08FECF4
:1006400097E00197F1F700C000000895662321F4B8
:1006500080580E94F002089580540E94F00208958C
:10066000CF93DF93EC018881882331F021960E949B
:10067000120389918823D9F7DF91CF91089581E002
:100680000E94F0020895CF93DF93EA010E942603AF
:10069000CE010E943003DF91CF910895109268013E
:1006A000009771F0E8E6F1E02AE030E0B9010E943D
:1006B0009F03805D8293862F972F0097B9F702C022
:1006C000E9E3F1E08E2F9F2F0895CF93DF93CBE3E3
:1006D000D1E080E060E0AE010E94430380E061E091
:1006E000AE010E944303DF91CF91089583E389B95E
:1006F00010BC8AB188618AB980B5866880BD0895CA
:100700005D9BFECF8CB908955F9BFECF8CB10895A1
:100710000F931F93CF938C01FC018081882359F0A4
:10072000C0E090E00E948003CF5FF801EC0FF11D64
:1007300080818823B1F7CF911F910F910895AA1B53
:10074000BB1B51E107C0AA1FBB1FA617B70710F0BC
:10075000A61BB70B881F991F5A95A9F780959095EE
:10076000BC01CD010895FB01DC018D910190801940
:0C0770000110D9F3990B0895F894FFCF05
:10077C0057656C636F6D652E2E00435546452032D0
:10078C003032310052464944204174742E00537962
:10079C007374656D2E2E00496E7365727420494416
:1007AC0020436172642E2E00380032313200313316
:1007BC0036003134380061626420656C206B6465EE
:1007CC0072002020202020202020202020202020EB
:1007DC00202020202020202000617474656E64612C
:1007EC00636520697320300061627363656E7420E9
:1007FC006973203300617474656E6461636520698C
:10080C007320310061627363656E742069732032EA
:10081C0000617474656E64616365206973203200D5
:10082C0061627363656E7420697320310061747446
:10083C00656E646163652069732033006162736364
:10084C00656E742069732030003000202020202039
:0E085C002020202020202020202020202000EE
:00000001FF
