:100000000C945D000C9437030C945E030C948500F3
:100010000C9485000C9485000C9485000C9485004C
:100020000C9485000C9485000C9485000C9485003C
:100030000C9485000C94EF020C9485000C948500C0
:100040000C9485030C9485000C9485000C94850019
:100050000C9485000C9485000C9485000C9485000C
:100060000C9485000C94850000000008000201003B
:100070000003040700000000000000000102040863
:100080001020408001020408102001020408102002
:10009000040404040404040402020202020203032E
:1000A0000303030300000000250028002B000000CC
:1000B0000000240027002A00610111241FBECFEF99
:1000C000D8E0DEBFCDBF11E0A0E0B1E0E8E0F2E1B2
:1000D00002C005900D92AC34B107D9F721E0ACE431
:1000E000B1E001C01D92A438B207E1F710E0CAEBFD
:1000F000D0E004C02297FE010E94EF08C83BD10760
:10010000C9F70E9492060C9402090C940000809199
:10011000540190915501A0915601B091570101965B
:10012000A11DB11D8093540190935501A0935601D8
:10013000B093570108958091540190915501A09179
:100140005601B09157018093500190935101A093B3
:100150005201B0935301089520E042E060E180E64F
:1001600091E00E942A0266E071E080E691E00E9440
:10017000EB04E1E8F0E080E180831092800083E00E
:100180008093780184ED90E390937A0180937901D4
:10019000909387008093860083E180838BE990E0D1
:1001A000909301018093000181E080936F0043E010
:1001B00050E067E870E080E00C94170310925C0157
:1001C00010925D0110925E0110925F0160915401E6
:1001D0007091550180915601909157010E94A3079B
:1001E00020E030E044E354E40E940A0720E030E0DD
:1001F000A9010E9459086093580170935901809396
:100200005A0190935B01209150013091510140912E
:10021000520150915301ACE3B0E00E94E2080E9409
:10022000A30721E63BE046EB5AE30E9459080E94EF
:10023000770760934C0170934D0180934E0190932A
:100240004F0141E060E080E691E00E94100267E12A
:1002500071E080E691E00E94EB04409158015091DA
:10026000590160915A0170915B0122E030E080E613
:1002700091E00E948F0661E271E080E691E00E94C9
:10028000EB0441E061E080E691E00E94100266E24A
:1002900071E080E691E00E94EB0440914C015091A6
:1002A0004D0160914E0170914F012AE030E080E6EF
:1002B00091E00E9497056DE271E080E691E00C9478
:1002C000EB04CF92EF920F938AE0C82E99E0E92ECB
:1002D00008E027E046E065E080E691E00E94C80281
:1002E0000F91EF90CF900895CF93DF93EC0160E0F2
:1002F0008E810E94770481E090E00E94CF0361E04C
:100300008E810E94770481E090E00E94CF0360E03C
:100310008E810E94770484E690E0DF91CF910C9467
:10032000CF03EF92FF920F931F93CF93DF938C0134
:10033000C0E0D0E0E62EF12CB7010C2E02C075957E
:1003400067950A94E2F76170F801EC0FFD1F878151
:100350000E9477042196C430D10571F7C801DF915E
:10036000CF911F910F91FF90EF900C947401EF9239
:10037000FF920F931F93CF93DF938C01C0E0D0E0E7
:10038000E62EF12CB7010C2E02C0759567950A94E4
:10039000E2F76170F801EC0FFD1F87810E9477047E
:1003A0002196C830D10571F7C801DF91CF911F9117
:1003B0000F91FF90EF900C9474011F93CF93DF93F4
:1003C000EC01162F642F8C810E9477048D818F3F62
:1003D00019F060E00E9477048F85612F84FF06C0CA
:1003E000CE01DF91CF911F910C94B70170E084E0B2
:1003F000759567958A95E1F7CE010E949101612F6D
:10040000CE01DF91CF911F910C94910140E00C94AB
:10041000DD0161E00E94060280ED97E00C94CF03BD
:10042000443008F043E0FC012389421710F04FEFFD
:10043000420FFC01E40FF11D2489260F2068622F72
:100440000C940602FC016089262F2460208B6C60CE
:100450000C9406020F931F93CF93DF93EC0142306D
:1004600018F08F8588608F874B8B1C8A80E48D8B7A
:100470006E8B70E0605C7F4F6F8B222329F04130E0
:1004800019F48F8584608F8761E08C810E943E041F
:100490008D818F3F19F061E00E943E0461E08E8102
:1004A0000E943E0400E010E08F8584FF03C088E0D6
:1004B00090E002C084E090E00817190754F4FE01B0
:1004C000E00FF11F61E087810E943E040F5F1F4F24
:1004D000EBCF80E593EC0E94CF0360E08C810E941B
:1004E000770460E08E810E9477048D818F3F19F040
:1004F00060E00E9477046F8564FD1DC063E0CE015B
:100500000E94910184E991E10E94CF0363E0CE0152
:100510000E94910184E991E10E94CF0363E0CE0142
:100520000E94910186E990E00E94CF0362E0CE0133
:100530000E94910116C06062CE010E94060284E909
:1005400091E10E94CF036F856062CE010E94060296
:1005500086E990E00E94CF036F856062CE010E9421
:1005600006026F856062CE010E94060284E0888BDD
:10057000CE010E942202CE010E94090282E0898BF4
:1005800066E0CE01DF91CF911F910F910C9406028E
:10059000CF92EF920F93FC011382128286E391E0D7
:1005A0009183808364838FEF8583468327830087CD
:1005B000E186C2861386148615861686178620E085
:1005C00041E060E1CF010F91EF90CF900C942A02AF
:1005D00041E00E94DD0181E090E0089508951F92BE
:1005E0000F920FB60F9211242F933F934F935F9367
:1005F0006F937F938F939F93AF93BF93EF93FF93EB
:10060000E0910001F09101010995FF91EF91BF91F7
:10061000AF919F918F917F916F915F914F913F919A
:100620002F910F900FBE0F901F9018950895823054
:10063000E8F4E82FF0E0EE0FFF1FEE5FFE4F71834E
:100640006083813041F0809169008C7F842B80939E
:100650006900E89A089580916900440F551F440F7E
:10066000551F837F842B80936900E99A08951F9218
:100670000F920FB60F9211242F933F934F935F93D6
:100680006F937F938F939F93AF93BF93EF93FF935A
:10069000E0910201F09103010995FF91EF91BF9163
:1006A000AF919F918F917F916F915F914F913F910A
:1006B0002F910F900FBE0F901F9018951F920F92C1
:1006C0000FB60F9211242F933F934F935F936F9325
:1006D0007F938F939F93AF93BF93EF93FF93E0919B
:1006E0000401F09105010995FF91EF91BF91AF9140
:1006F0009F918F917F916F915F914F913F912F913A
:100700000F900FBE0F901F9018951F920F920FB66B
:100710000F9211242F933F938F939F93AF93BF9387
:1007200080917C0190917D01A0917E01B0917F012B
:1007300030917B0123E0230F2D3720F40196A11D7A
:10074000B11D05C026E8230F0296A11DB11D2093FF
:100750007B0180937C0190937D01A0937E01B093F7
:100760007F018091800190918101A0918201B091DF
:1007700083010196A11DB11D809380019093810199
:10078000A0938201B0938301BF91AF919F918F910C
:100790003F912F910F900FBE0F901F9018958230B0
:1007A000910538F0880F991F880F991F05970197B9
:1007B000F1F70895789484B5826084BD84B5816032
:1007C00084BD85B5826085BD85B5816085BDEEE659
:1007D000F0E0808181608083E1E8F0E01082808138
:1007E00082608083808181608083E0E8F0E08081A6
:1007F00081608083E1EBF0E0808184608083E0EBC6
:10080000F0E0808181608083EAE7F0E080818460AD
:100810008083808182608083808181608083808109
:10082000806880831092C1000895833081F028F49D
:10083000813099F08230A1F008958730A9F0883096
:10084000B9F08430D1F4809180008F7D03C0809115
:1008500080008F7780938000089584B58F7702C0E1
:1008600084B58F7D84BD08958091B0008F7703C0DB
:100870008091B0008F7D8093B0000895CF93DF9377
:1008800090E0FC01E458FF4F2491FC01E057FF4F3A
:100890008491882349F190E0880F991FFC01E2556B
:1008A000FF4FA591B4918C559F4FFC01C591D491F8
:1008B0009FB7611108C0F8948C91209582238C9386
:1008C000888182230AC0623051F4F8948C91322FCF
:1008D000309583238C938881822B888304C0F8947D
:1008E0008C91822B8C939FBFDF91CF9108950F93B2
:1008F0001F93CF93DF931F92CDB7DEB7282F30E041
:10090000F901E859FF4F8491F901E458FF4F149120
:10091000F901E057FF4F04910023C9F0882321F02B
:1009200069830E9415046981E02FF0E0EE0FFF1F3C
:10093000EC55FF4FA591B4919FB7F8948C9161113C
:1009400003C01095812301C0812B8C939FBF0F9012
:10095000DF91CF911F910F910895CF92DF92EF9287
:10096000FF920F931F93CF93DF937C016A01EB01FA
:1009700000E010E00C151D0571F06991D701ED91B3
:10098000FC910190F081E02DC7010995892B19F0A8
:100990000F5F1F4FEFCFC801DF91CF911F910F91D4
:1009A000FF90EF90DF90CF9008956115710581F071
:1009B000DB010D900020E9F7AD0141505109461BC4
:1009C000570BDC01ED91FC910280F381E02D09943D
:1009D00080E090E008950C94D504DC01ED91FC9149
:1009E0000190F081E02D09948F929F92AF92BF9277
:1009F000CF92DF92EF92FF920F931F93CF93DF93EB
:100A0000CDB7DEB7A1970FB6F894DEBF0FBECDBF4E
:100A10007C01C42EE52FCB01D22E19A221E02D1589
:100A200010F02AE0D22E8E010F5D1F4F8D2C912CDD
:100A3000A12CB12C6C2D7E2FA50194010E94C00821
:100A40008C2DD29E80191124015011098A3014F482
:100A5000805D01C0895CF801808321153105410565
:100A6000510521F0C22EE32FCA01E4CFB801C7011E
:100A70000E94D504A1960FB6F894DEBF0FBECDBF7D
:100A8000DF91CF911F910F91FF90EF90DF90CF906A
:100A9000BF90AF909F908F900895CF92DF92EF928A
:100AA000FF920F931F93CF93DF93EC016A017B01B9
:100AB0002115310579F4E881F9810190F081E02D6B
:100AC000642FDF91CF911F910F91FF90EF90DF90F6
:100AD000CF9009942A303105E9F477FF1AC06DE20E
:100AE0000E94ED048C0144275527BA014C195D0979
:100AF0006E097F092AE0CE010E94F404800F911F45
:100B0000DF91CF911F910F91FF90EF90DF90CF90E9
:100B100008952AE0B701A601CE01DF91CF911F9180
:100B20000F91FF90EF90DF90CF900C94F40421157B
:100B3000310541F4DC01ED91FC910190F081E02D53
:100B4000642F09940C94F4044F925F926F927F92F9
:100B50008F929F92AF92BF92CF92DF92EF92FF92CD
:100B60000F931F93CF93DF93EC016A017B01B22EA9
:100B70009A01AB01C701B6010E94BC08882319F095
:100B80006DE371E027C026013701E89477F82FEF75
:100B90003FEF4FE75FE7C301B2010E94BC0881113C
:100BA0000DC02FEF3FEF4FE75FE7C301B2010E9497
:100BB000060718161CF461E471E00CC02FEF3FEF3C
:100BC0004FE75FE4C701B6010E9455081816ACF460
:100BD00065E471E0CE01DF91CF911F910F91FF90FD
:100BE000EF90DF90CF90BF90AF909F908F907F90CD
:100BF0006F905F904F900C94D5042FEF3FEF4FE72D
:100C00005FECC701B6010E94060787FDE1CF20E037
:100C100030E0A901C701B6010E94060787FF0AC09C
:100C20006DE2CE010E94ED048C01F7FAF094F7F822
:100C3000F09402C000E010E0A12C60E070E080E0E1
:100C40009FE3AB1441F020E030E040E251E40E9429
:100C50000A07A394F6CF9B01AC01C701B6010E941D
:100C6000A2066B017C010E9477072B013C010E94C8
:100C7000A3079B01AC01C701B6010E94A1066B014D
:100C80007C012AE0B301A201CE010E94F404080F06
:100C9000191FBB2039F069E471E0CE010E94D50430
:100CA000080F191F7B2C772041F120E030E040E253
:100CB00051E4C701B6010E9459086B017C010E94F2
:100CC00072074B01AA2497FCA094BA2C2AE030E0CA
:100CD000B501A401CE010E944D05080F191FC501E1
:100CE000B4010E94A5079B01AC01C701B6010E9497
:100CF000A1066B017C017A94D6CFC801DF91CF9118
:100D00001F910F91FF90EF90DF90CF90BF90AF9029
:100D10009F908F907F906F905F904F9008950C946C
:100D2000A40508950E94DA030E9491060E94AC0077
:100D3000C0E0D0E00E94DE002097E1F30E940000B6
:100D4000F9CF5058BB27AA270ED075C166D130F015
:100D50006BD120F031F49F3F11F41EF45BC10EF40F
:100D6000E095E7FB51C1E92F77D180F3BA1762070D
:100D700073078407950718F071F49EF58FC10EF480
:100D8000E0950B2EBA2FA02D0B01B90190010C019B
:100D9000CA01A0011124FF27591B99F0593F50F4B3
:100DA000503E68F11A16F040A22F232F342F44270B
:100DB000585FF3CF469537952795A795F040539503
:100DC000C9F77EF41F16BA0B620B730B840BBAF0D3
:100DD0009150A1F0FF0FBB1F661F771F881FC2F73E
:100DE0000EC0BA0F621F731F841F48F48795779552
:100DF0006795B795F7959E3F08F0B3CF9395880F09
:100E000008F09927EE0F979587950895D9D008F4A3
:100E100081E008950CD00FC107D140F0FED030F032
:100E200021F45F3F19F0F0C0511139C1F3C014D162
:100E300098F39923C9F35523B1F3951B550BBB27A1
:100E4000AA2762177307840738F09F5F5F4F220F4E
:100E5000331F441FAA1FA9F333D00E2E3AF0E0E847
:100E600030D091505040E695001CCAF729D0FE2F93
:100E700027D0660F771F881FBB1F26173707480725
:100E8000AB07B0E809F0BB0B802DBF01FF279358DB
:100E90005F4F2AF09E3F510568F0B6C000C15F3F2A
:100EA000ECF3983EDCF3869577956795B795F795C3
:100EB0009F5FC9F7880F911D9695879597F90895BB
:100EC000E1E0660F771F881FBB1F62177307840757
:100ED000BA0720F0621B730B840BBA0BEE1F88F766
:100EE000E095089504D06894B111D9C00895BCD09C
:100EF00088F09F5790F0B92F9927B751A0F0D1F003
:100F0000660F771F881F991F1AF0BA95C9F712C08C
:100F1000B13081F0C3D0B1E00895C0C0672F782F01
:100F20008827B85F39F0B93FCCF3869577956795F8
:100F3000B395D9F73EF490958095709561957F4F64
:100F40008F4F9F4F0895E89409C097FB3EF490950A
:100F50008095709561957F4F8F4F9F4F9923A9F092
:100F6000F92F96E9BB279395F69587957795679521
:100F7000B795F111F8CFFAF4BB0F11F460FF1BC065
:100F80006F5F7F4F8F4F9F4F16C0882311F096E9F8
:100F900011C0772321F09EE8872F762F05C06623A6
:100FA00071F096E8862F70E060E02AF09A95660F5F
:100FB000771F881FDAF7880F9695879597F9089518
:100FC000990F0008550FAA0BE0E8FEEF161617065A
:100FD000E807F907C0F012161306E407F50798F0C2
:100FE000621B730B840B950B39F40A2661F0232BDB
:100FF000242B252B21F408950A2609F4A140A69557
:101000008FEF811D811D089597F99F6780E870E03B
:1010100060E008959FEF80EC089500240A9416166E
:10102000170618060906089500240A9412161306D6
:10103000140605060895092E0394000C11F4882364
:1010400052F0BB0F40F4BF2B11F460FF04C06F5F80
:101050007F4F8F4F9F4F089557FD9058440F551F56
:1010600059F05F3F71F04795880F97FB991F61F02A
:101070009F3F79F087950895121613061406551FA1
:10108000F2CF4695F1DF08C0161617061806991F0D
:10109000F1CF86957105610508940895E894BB2702
:1010A00066277727CB0197F908958ADF08F48FEF39
:1010B00008950BD0C0CFB1DF28F0B6DF18F095232C
:1010C00009F0A2CFA7CF1124EACFC6DFA0F3959FE6
:1010D000D1F3950F50E0551F629FF001729FBB271F
:1010E000F00DB11D639FAA27F00DB11DAA1F649FCB
:1010F0006627B00DA11D661F829F2227B00DA11D7E
:10110000621F739FB00DA11D621F839FA00D611D03
:10111000221F749F3327A00D611D231F849F600D24
:10112000211D822F762F6A2F11249F5750408AF05D
:10113000E1F088234AF0EE0FFF1FBB1F661F771FE9
:10114000881F91505040A9F79E3F510570F05CCF29
:10115000A6CF5F3FECF3983EDCF3869577956795D5
:10116000B795F795E7959F5FC1F7FE2B880F911D07
:101170009695879597F9089523DF880B990B089525
:10118000A1E21A2EAA1BBB1BFD010DC0AA1FBB1F8B
:10119000EE1FFF1FA217B307E407F50720F0A21BFD
:1011A000B30BE40BF50B661F771F881F991F1A946A
:1011B00069F760957095809590959B01AC01BD0194
:1011C000CF0108950E94F308A59F900DB49F900D44
:1011D000A49F800D911D11240895EE0FFF1F05900F
:1011E000F491E02D0994A29FB001B39FC001A39F89
:1011F000700D811D1124911DB29F700D811D112450
:08120000911D0895F894FFCF41
:10120800EE02160316035355525645594F522753AB
:1012180020574845454C0064697374616E63653DA9
:1012280000636D20200073706565643D0052504D69
:10123800200000000000E802AD040D0A006E616E97
:0C12480000696E66006F7666002E0000E4
:00000001FF
